{
  "_format": "hh-sol-artifact-1",
  "contractName": "WavePortal",
  "sourceName": "contracts/WavePortal.sol",
  "abi": [
    {
      "inputs": [],
      "stateMutability": "payable",
      "type": "constructor"
    },
    {
      "anonymous": false,
      "inputs": [
        {
          "indexed": true,
          "internalType": "address",
          "name": "from",
          "type": "address"
        },
        {
          "indexed": false,
          "internalType": "uint256",
          "name": "timestamp",
          "type": "uint256"
        },
        {
          "indexed": false,
          "internalType": "string",
          "name": "message",
          "type": "string"
        }
      ],
      "name": "NewWave",
      "type": "event"
    },
    {
      "inputs": [],
      "name": "getAllWaves",
      "outputs": [
        {
          "components": [
            {
              "internalType": "address",
              "name": "waver",
              "type": "address"
            },
            {
              "internalType": "string",
              "name": "message",
              "type": "string"
            },
            {
              "internalType": "uint256",
              "name": "timestamp",
              "type": "uint256"
            }
          ],
          "internalType": "struct WavePortal.Wave[]",
          "name": "",
          "type": "tuple[]"
        }
      ],
      "stateMutability": "view",
      "type": "function"
    },
    {
      "inputs": [],
      "name": "getContractBalance",
      "outputs": [
        {
          "internalType": "uint256",
          "name": "",
          "type": "uint256"
        }
      ],
      "stateMutability": "view",
      "type": "function"
    },
    {
      "inputs": [],
      "name": "getTotalWaves",
      "outputs": [
        {
          "internalType": "uint256",
          "name": "",
          "type": "uint256"
        }
      ],
      "stateMutability": "view",
      "type": "function"
    },
    {
      "inputs": [
        {
          "internalType": "string",
          "name": "_message",
          "type": "string"
        }
      ],
      "name": "wave",
      "outputs": [],
      "stateMutability": "nonpayable",
      "type": "function"
    }
  ],
  "bytecode": "0x6080604052662386f26fc10000600255610ca88061001e6000396000f3fe608060405234801561001057600080fd5b506004361061004c5760003560e01c8063449d46c0146100515780636f9fb98a1461006d5780639a2cdc081461008b578063bd43a908146100a9575b600080fd5b61006b600480360381019061006691906106ec565b6100c7565b005b610075610246565b60405161008291906109bc565b60405180910390f35b61009361024e565b6040516100a091906109bc565b60405180910390f35b6100b1610299565b6040516100be919061091a565b60405180910390f35b60016000808282546100d99190610ace565b9250508190555061011f6040518060400160405280600d81526020017f2573206861732077617665642100000000000000000000000000000000000000815250336103ea565b600160405180606001604052803373ffffffffffffffffffffffffffffffffffffffff16815260200183815260200142815250908060018154018082558091505060019003906000526020600020906003020160009091909190915060008201518160000160006101000a81548173ffffffffffffffffffffffffffffffffffffffff021916908373ffffffffffffffffffffffffffffffffffffffff16021790555060208201518160010190805190602001906101de9291906105e1565b506040820151816002015550506101f3610486565b3373ffffffffffffffffffffffffffffffffffffffff167f5f7e16dc676677766a70e9c5628aa6c54ddb8b6e5188e2ae1e1f17f1ffbea716428360405161023b9291906109d7565b60405180910390a250565b600047905090565b60006102916040518060400160405280601781526020017f5765206861766520256420746f74616c2077617665732100000000000000000081525060005461051c565b600054905090565b60606001805480602002602001604051908101604052809291908181526020016000905b828210156103e157838290600052602060002090600302016040518060600160405290816000820160009054906101000a900473ffffffffffffffffffffffffffffffffffffffff1673ffffffffffffffffffffffffffffffffffffffff1673ffffffffffffffffffffffffffffffffffffffff16815260200160018201805461034690610ba2565b80601f016020809104026020016040519081016040528092919081815260200182805461037290610ba2565b80156103bf5780601f10610394576101008083540402835291602001916103bf565b820191906000526020600020905b8154815290600101906020018083116103a257829003601f168201915b50505050508152602001600282015481525050815260200190600101906102bd565b50505050905090565b610482828260405160240161040092919061093c565b6040516020818303038152906040527f319af333000000000000000000000000000000000000000000000000000000007bffffffffffffffffffffffffffffffffffffffffffffffffffffffff19166020820180517bffffffffffffffffffffffffffffffffffffffffffffffffffffffff83818316178352505050506105b8565b5050565b60003390504760025411156104d0576040517f08c379a00000000000000000000000000000000000000000000000000000000081526004016104c79061099c565b60405180910390fd5b8073ffffffffffffffffffffffffffffffffffffffff166108fc6002549081150290604051600060405180830381858888f19350505050158015610518573d6000803e3d6000fd5b5050565b6105b4828260405160240161053292919061096c565b6040516020818303038152906040527f9710a9d0000000000000000000000000000000000000000000000000000000007bffffffffffffffffffffffffffffffffffffffffffffffffffffffff19166020820180517bffffffffffffffffffffffffffffffffffffffffffffffffffffffff83818316178352505050506105b8565b5050565b60008151905060006a636f6e736f6c652e6c6f679050602083016000808483855afa5050505050565b8280546105ed90610ba2565b90600052602060002090601f01602090048101928261060f5760008555610656565b82601f1061062857805160ff1916838001178555610656565b82800160010185558215610656579182015b8281111561065557825182559160200191906001019061063a565b5b5090506106639190610667565b5090565b5b80821115610680576000816000905550600101610668565b5090565b600061069761069284610a38565b610a07565b9050828152602081018484840111156106af57600080fd5b6106ba848285610b60565b509392505050565b600082601f8301126106d357600080fd5b81356106e3848260208601610684565b91505092915050565b6000602082840312156106fe57600080fd5b600082013567ffffffffffffffff81111561071857600080fd5b610724848285016106c2565b91505092915050565b600061073983836108ac565b905092915050565b61074a81610b24565b82525050565b61075981610b24565b82525050565b600061076a82610a78565b6107748185610a9b565b93508360208202850161078685610a68565b8060005b858110156107c257848403895281516107a3858261072d565b94506107ae83610a8e565b925060208a0199505060018101905061078a565b50829750879550505050505092915050565b60006107df82610a83565b6107e98185610aac565b93506107f9818560208601610b6f565b61080281610c61565b840191505092915050565b600061081882610a83565b6108228185610abd565b9350610832818560208601610b6f565b61083b81610c61565b840191505092915050565b6000610853603483610abd565b91507f547279696e6720746f207769746864726177206d6f7265206d6f6e657920746860008301527f616e2074686520636f6e7472616374206861732e0000000000000000000000006020830152604082019050919050565b60006060830160008301516108c46000860182610741565b50602083015184820360208601526108dc82826107d4565b91505060408301516108f160408601826108fc565b508091505092915050565b61090581610b56565b82525050565b61091481610b56565b82525050565b60006020820190508181036000830152610934818461075f565b905092915050565b60006040820190508181036000830152610956818561080d565b90506109656020830184610750565b9392505050565b60006040820190508181036000830152610986818561080d565b9050610995602083018461090b565b9392505050565b600060208201905081810360008301526109b581610846565b9050919050565b60006020820190506109d1600083018461090b565b92915050565b60006040820190506109ec600083018561090b565b81810360208301526109fe818461080d565b90509392505050565b6000604051905081810181811067ffffffffffffffff82111715610a2e57610a2d610c32565b5b8060405250919050565b600067ffffffffffffffff821115610a5357610a52610c32565b5b601f19601f8301169050602081019050919050565b6000819050602082019050919050565b600081519050919050565b600081519050919050565b6000602082019050919050565b600082825260208201905092915050565b600082825260208201905092915050565b600082825260208201905092915050565b6000610ad982610b56565b9150610ae483610b56565b9250827fffffffffffffffffffffffffffffffffffffffffffffffffffffffffffffffff03821115610b1957610b18610bd4565b5b828201905092915050565b6000610b2f82610b36565b9050919050565b600073ffffffffffffffffffffffffffffffffffffffff82169050919050565b6000819050919050565b82818337600083830152505050565b60005b83811015610b8d578082015181840152602081019050610b72565b83811115610b9c576000848401525b50505050565b60006002820490506001821680610bba57607f821691505b60208210811415610bce57610bcd610c03565b5b50919050565b7f4e487b7100000000000000000000000000000000000000000000000000000000600052601160045260246000fd5b7f4e487b7100000000000000000000000000000000000000000000000000000000600052602260045260246000fd5b7f4e487b7100000000000000000000000000000000000000000000000000000000600052604160045260246000fd5b6000601f19601f830116905091905056fea264697066735822122028658b09b0dfe3acbb4188e522b75f47dabb3a0dcaeb997289c9e1172a08a60564736f6c63430008000033",
  "linkReferences": {},
  "deployedLinkReferences": {}
}